{
  "contractName": "StarNotary",
  "abi": [
    {
      "constant": true,
      "inputs": [
        {
          "name": "interfaceId",
          "type": "bytes4"
        }
      ],
      "name": "supportsInterface",
      "outputs": [
        {
          "name": "",
          "type": "bool"
        }
      ],
      "payable": false,
      "stateMutability": "view",
      "type": "function"
    },
    {
      "constant": true,
      "inputs": [
        {
          "name": "tokenId",
          "type": "uint256"
        }
      ],
      "name": "getApproved",
      "outputs": [
        {
          "name": "",
          "type": "address"
        }
      ],
      "payable": false,
      "stateMutability": "view",
      "type": "function"
    },
    {
      "constant": false,
      "inputs": [
        {
          "name": "to",
          "type": "address"
        },
        {
          "name": "tokenId",
          "type": "uint256"
        }
      ],
      "name": "approve",
      "outputs": [],
      "payable": false,
      "stateMutability": "nonpayable",
      "type": "function"
    },
    {
      "constant": false,
      "inputs": [
        {
          "name": "from",
          "type": "address"
        },
        {
          "name": "to",
          "type": "address"
        },
        {
          "name": "tokenId",
          "type": "uint256"
        }
      ],
      "name": "transferFrom",
      "outputs": [],
      "payable": false,
      "stateMutability": "nonpayable",
      "type": "function"
    },
    {
      "constant": true,
      "inputs": [
        {
          "name": "",
          "type": "uint256"
        }
      ],
      "name": "tokenIdToStar",
      "outputs": [
        {
          "name": "name",
          "type": "string"
        },
        {
          "name": "story",
          "type": "string"
        },
        {
          "name": "dec",
          "type": "string"
        },
        {
          "name": "mag",
          "type": "string"
        },
        {
          "name": "cent",
          "type": "string"
        }
      ],
      "payable": false,
      "stateMutability": "view",
      "type": "function"
    },
    {
      "constant": false,
      "inputs": [
        {
          "name": "from",
          "type": "address"
        },
        {
          "name": "to",
          "type": "address"
        },
        {
          "name": "tokenId",
          "type": "uint256"
        }
      ],
      "name": "safeTransferFrom",
      "outputs": [],
      "payable": false,
      "stateMutability": "nonpayable",
      "type": "function"
    },
    {
      "constant": true,
      "inputs": [
        {
          "name": "tokenId",
          "type": "uint256"
        }
      ],
      "name": "ownerOf",
      "outputs": [
        {
          "name": "",
          "type": "address"
        }
      ],
      "payable": false,
      "stateMutability": "view",
      "type": "function"
    },
    {
      "constant": true,
      "inputs": [
        {
          "name": "owner",
          "type": "address"
        }
      ],
      "name": "balanceOf",
      "outputs": [
        {
          "name": "",
          "type": "uint256"
        }
      ],
      "payable": false,
      "stateMutability": "view",
      "type": "function"
    },
    {
      "constant": false,
      "inputs": [
        {
          "name": "to",
          "type": "address"
        },
        {
          "name": "approved",
          "type": "bool"
        }
      ],
      "name": "setApprovalForAll",
      "outputs": [],
      "payable": false,
      "stateMutability": "nonpayable",
      "type": "function"
    },
    {
      "constant": false,
      "inputs": [
        {
          "name": "from",
          "type": "address"
        },
        {
          "name": "to",
          "type": "address"
        },
        {
          "name": "tokenId",
          "type": "uint256"
        },
        {
          "name": "_data",
          "type": "bytes"
        }
      ],
      "name": "safeTransferFrom",
      "outputs": [],
      "payable": false,
      "stateMutability": "nonpayable",
      "type": "function"
    },
    {
      "constant": true,
      "inputs": [
        {
          "name": "owner",
          "type": "address"
        },
        {
          "name": "operator",
          "type": "address"
        }
      ],
      "name": "isApprovedForAll",
      "outputs": [
        {
          "name": "",
          "type": "bool"
        }
      ],
      "payable": false,
      "stateMutability": "view",
      "type": "function"
    },
    {
      "anonymous": false,
      "inputs": [
        {
          "indexed": false,
          "name": "owner",
          "type": "address"
        },
        {
          "indexed": false,
          "name": "tokenId",
          "type": "uint256"
        }
      ],
      "name": "starCreated",
      "type": "event"
    },
    {
      "anonymous": false,
      "inputs": [
        {
          "indexed": true,
          "name": "from",
          "type": "address"
        },
        {
          "indexed": true,
          "name": "to",
          "type": "address"
        },
        {
          "indexed": true,
          "name": "tokenId",
          "type": "uint256"
        }
      ],
      "name": "Transfer",
      "type": "event"
    },
    {
      "anonymous": false,
      "inputs": [
        {
          "indexed": true,
          "name": "owner",
          "type": "address"
        },
        {
          "indexed": true,
          "name": "approved",
          "type": "address"
        },
        {
          "indexed": true,
          "name": "tokenId",
          "type": "uint256"
        }
      ],
      "name": "Approval",
      "type": "event"
    },
    {
      "anonymous": false,
      "inputs": [
        {
          "indexed": true,
          "name": "owner",
          "type": "address"
        },
        {
          "indexed": true,
          "name": "operator",
          "type": "address"
        },
        {
          "indexed": false,
          "name": "approved",
          "type": "bool"
        }
      ],
      "name": "ApprovalForAll",
      "type": "event"
    },
    {
      "constant": false,
      "inputs": [
        {
          "name": "_name",
          "type": "string"
        },
        {
          "name": "_story",
          "type": "string"
        },
        {
          "name": "_dec",
          "type": "string"
        },
        {
          "name": "_mag",
          "type": "string"
        },
        {
          "name": "_cent",
          "type": "string"
        }
      ],
      "name": "createStar",
      "outputs": [
        {
          "name": "",
          "type": "uint256"
        }
      ],
      "payable": false,
      "stateMutability": "nonpayable",
      "type": "function"
    },
    {
      "constant": false,
      "inputs": [
        {
          "name": "_tokenId",
          "type": "uint256"
        },
        {
          "name": "_price",
          "type": "uint256"
        }
      ],
      "name": "putStarUpForSale",
      "outputs": [],
      "payable": false,
      "stateMutability": "nonpayable",
      "type": "function"
    },
    {
      "constant": false,
      "inputs": [
        {
          "name": "_tokenId",
          "type": "uint256"
        }
      ],
      "name": "buyStar",
      "outputs": [],
      "payable": true,
      "stateMutability": "payable",
      "type": "function"
    },
    {
      "constant": true,
      "inputs": [],
      "name": "starsForSale",
      "outputs": [
        {
          "name": "",
          "type": "uint256[]"
        }
      ],
      "payable": false,
      "stateMutability": "view",
      "type": "function"
    },
    {
      "constant": true,
      "inputs": [
        {
          "name": "_tokenId",
          "type": "uint256"
        }
      ],
      "name": "tokenIdToStarInfo",
      "outputs": [
        {
          "name": "_name",
          "type": "string"
        },
        {
          "name": "_story",
          "type": "string"
        },
        {
          "name": "_dec",
          "type": "string"
        },
        {
          "name": "_mag",
          "type": "string"
        },
        {
          "name": "_cent",
          "type": "string"
        }
      ],
      "payable": false,
      "stateMutability": "view",
      "type": "function"
    }
  ],
  "bytecode": "0x6080604052600060055560006006556200004b6301ffc9a77c0100000000000000000000000000000000000000000000000000000000026200008e640100000000026401000000009004565b620000886380ac58cd7c0100000000000000000000000000000000000000000000000000000000026200008e640100000000026401000000009004565b6200014c565b63ffffffff7c010000000000000000000000000000000000000000000000000000000002817bffffffffffffffffffffffffffffffffffffffffffffffffffffffff191614151515620000e057600080fd5b6001600080837bffffffffffffffffffffffffffffffffffffffffffffffffffffffff19167bffffffffffffffffffffffffffffffffffffffffffffffffffffffff1916815260200190815260200160002060006101000a81548160ff02191690831515021790555050565b612cf7806200015c6000396000f3006080604052600436106100e6576000357c0100000000000000000000000000000000000000000000000000000000900463ffffffff16806301ffc9a7146100eb578063081812fc1461014f578063095ea7b3146101bc5780631967fd981461020957806323b872dd1461045f578063267d9ae1146104cc5780632f1c34ef14610722578063316a43611461074257806342842e0e146107795780635f3ff33c146107e6578063613883e31461097b5780636352211e146109e757806370a0823114610a54578063a22cb46514610aab578063b88d4fde14610afa578063e985e9c514610bad575b600080fd5b3480156100f757600080fd5b5061013560048036038101908080357bffffffffffffffffffffffffffffffffffffffffffffffffffffffff19169060200190929190505050610c28565b604051808215151515815260200191505060405180910390f35b34801561015b57600080fd5b5061017a60048036038101908080359060200190929190505050610c8f565b604051808273ffffffffffffffffffffffffffffffffffffffff1673ffffffffffffffffffffffffffffffffffffffff16815260200191505060405180910390f35b3480156101c857600080fd5b50610207600480360381019080803573ffffffffffffffffffffffffffffffffffffffff16906020019092919080359060200190929190505050610ce0565b005b34801561021557600080fd5b5061023460048036038101908080359060200190929190505050610e25565b60405180806020018060200180602001806020018060200186810386528b818151815260200191508051906020019080838360005b83811015610284578082015181840152602081019050610269565b50505050905090810190601f1680156102b15780820380516001836020036101000a031916815260200191505b5086810385528a818151815260200191508051906020019080838360005b838110156102ea5780820151818401526020810190506102cf565b50505050905090810190601f1680156103175780820380516001836020036101000a031916815260200191505b50868103845289818151815260200191508051906020019080838360005b83811015610350578082015181840152602081019050610335565b50505050905090810190601f16801561037d5780820380516001836020036101000a031916815260200191505b50868103835288818151815260200191508051906020019080838360005b838110156103b657808201518184015260208101905061039b565b50505050905090810190601f1680156103e35780820380516001836020036101000a031916815260200191505b50868103825287818151815260200191508051906020019080838360005b8381101561041c578082015181840152602081019050610401565b50505050905090810190601f1680156104495780820380516001836020036101000a031916815260200191505b509a505050505050505050505060405180910390f35b34801561046b57600080fd5b506104ca600480360381019080803573ffffffffffffffffffffffffffffffffffffffff169060200190929190803573ffffffffffffffffffffffffffffffffffffffff16906020019092919080359060200190929190505050611267565b005b3480156104d857600080fd5b506104f760048036038101908080359060200190929190505050611321565b60405180806020018060200180602001806020018060200186810386528b818151815260200191508051906020019080838360005b8381101561054757808201518184015260208101905061052c565b50505050905090810190601f1680156105745780820380516001836020036101000a031916815260200191505b5086810385528a818151815260200191508051906020019080838360005b838110156105ad578082015181840152602081019050610592565b50505050905090810190601f1680156105da5780820380516001836020036101000a031916815260200191505b50868103845289818151815260200191508051906020019080838360005b838110156106135780820151818401526020810190506105f8565b50505050905090810190601f1680156106405780820380516001836020036101000a031916815260200191505b50868103835288818151815260200191508051906020019080838360005b8381101561067957808201518184015260208101905061065e565b50505050905090810190601f1680156106a65780820380516001836020036101000a031916815260200191505b50868103825287818151815260200191508051906020019080838360005b838110156106df5780820151818401526020810190506106c4565b50505050905090810190601f16801561070c5780820380516001836020036101000a031916815260200191505b509a505050505050505050505060405180910390f35b6107406004803603810190808035906020019092919050505061164f565b005b34801561074e57600080fd5b5061077760048036038101908080359060200190929190803590602001909291905050506119b9565b005b34801561078557600080fd5b506107e4600480360381019080803573ffffffffffffffffffffffffffffffffffffffff169060200190929190803573ffffffffffffffffffffffffffffffffffffffff16906020019092919080359060200190929190505050611ac4565b005b3480156107f257600080fd5b50610965600480360381019080803590602001908201803590602001908080601f0160208091040260200160405190810160405280939291908181526020018383808284378201915050505050509192919290803590602001908201803590602001908080601f0160208091040260200160405190810160405280939291908181526020018383808284378201915050505050509192919290803590602001908201803590602001908080601f0160208091040260200160405190810160405280939291908181526020018383808284378201915050505050509192919290803590602001908201803590602001908080601f0160208091040260200160405190810160405280939291908181526020018383808284378201915050505050509192919290803590602001908201803590602001908080601f0160208091040260200160405190810160405280939291908181526020018383808284378201915050505050509192919290505050611ae5565b6040518082815260200191505060405180910390f35b34801561098757600080fd5b50610990611dac565b6040518080602001828103825283818151815260200191508051906020019060200280838360005b838110156109d35780820151818401526020810190506109b8565b505050509050019250505060405180910390f35b3480156109f357600080fd5b50610a1260048036038101908080359060200190929190505050611e04565b604051808273ffffffffffffffffffffffffffffffffffffffff1673ffffffffffffffffffffffffffffffffffffffff16815260200191505060405180910390f35b348015610a6057600080fd5b50610a95600480360381019080803573ffffffffffffffffffffffffffffffffffffffff169060200190929190505050611e82565b6040518082815260200191505060405180910390f35b348015610ab757600080fd5b50610af8600480360381019080803573ffffffffffffffffffffffffffffffffffffffff169060200190929190803515159060200190929190505050611f06565b005b348015610b0657600080fd5b50610bab600480360381019080803573ffffffffffffffffffffffffffffffffffffffff169060200190929190803573ffffffffffffffffffffffffffffffffffffffff16906020019092919080359060200190929190803590602001908201803590602001908080601f0160208091040260200160405190810160405280939291908181526020018383808284378201915050505050509192919290505050612042565b005b348015610bb957600080fd5b50610c0e600480360381019080803573ffffffffffffffffffffffffffffffffffffffff169060200190929190803573ffffffffffffffffffffffffffffffffffffffff169060200190929190505050612053565b604051808215151515815260200191505060405180910390f35b6000806000837bffffffffffffffffffffffffffffffffffffffffffffffffffffffff19167bffffffffffffffffffffffffffffffffffffffffffffffffffffffff1916815260200190815260200160002060009054906101000a900460ff169050919050565b6000610c9a826120e7565b1515610ca557600080fd5b6002600083815260200190815260200160002060009054906101000a900473ffffffffffffffffffffffffffffffffffffffff169050919050565b6000610ceb82611e04565b90508073ffffffffffffffffffffffffffffffffffffffff168373ffffffffffffffffffffffffffffffffffffffff1614151515610d2857600080fd5b8073ffffffffffffffffffffffffffffffffffffffff163373ffffffffffffffffffffffffffffffffffffffff161480610d685750610d678133612053565b5b1515610d7357600080fd5b826002600084815260200190815260200160002060006101000a81548173ffffffffffffffffffffffffffffffffffffffff021916908373ffffffffffffffffffffffffffffffffffffffff160217905550818373ffffffffffffffffffffffffffffffffffffffff168273ffffffffffffffffffffffffffffffffffffffff167f8c5be1e5ebec7d5bd14f71427d1e84f3dd0314c0f7b2291e5b200ac8c7c3b92560405160405180910390a4505050565b6060806060806060610e35612bca565b6008600088815260200190815260200160002060a06040519081016040529081600082018054600181600116156101000203166002900480601f016020809104026020016040519081016040528092919081815260200182805460018160011615610100020316600290048015610eed5780601f10610ec257610100808354040283529160200191610eed565b820191906000526020600020905b815481529060010190602001808311610ed057829003601f168201915b50505050508152602001600182018054600181600116156101000203166002900480601f016020809104026020016040519081016040528092919081815260200182805460018160011615610100020316600290048015610f8f5780601f10610f6457610100808354040283529160200191610f8f565b820191906000526020600020905b815481529060010190602001808311610f7257829003601f168201915b50505050508152602001600282018054600181600116156101000203166002900480601f0160208091040260200160405190810160405280929190818152602001828054600181600116156101000203166002900480156110315780601f1061100657610100808354040283529160200191611031565b820191906000526020600020905b81548152906001019060200180831161101457829003601f168201915b50505050508152602001600382018054600181600116156101000203166002900480601f0160208091040260200160405190810160405280929190818152602001828054600181600116156101000203166002900480156110d35780601f106110a8576101008083540402835291602001916110d3565b820191906000526020600020905b8154815290600101906020018083116110b657829003601f168201915b50505050508152602001600482018054600181600116156101000203166002900480601f0160208091040260200160405190810160405280929190818152602001828054600181600116156101000203166002900480156111755780601f1061114a57610100808354040283529160200191611175565b820191906000526020600020905b81548152906001019060200180831161115857829003601f168201915b505050505081525050905080600001519550806020015194506111d16040805190810160405280600481526020017f6465635f000000000000000000000000000000000000000000000000000000008152508260400151612159565b93506112166040805190810160405280600481526020017f6d61675f000000000000000000000000000000000000000000000000000000008152508260600151612159565b925061125b6040805190810160405280600581526020017f63656e745f0000000000000000000000000000000000000000000000000000008152508260800151612159565b91505091939590929450565b600073ffffffffffffffffffffffffffffffffffffffff168273ffffffffffffffffffffffffffffffffffffffff16141515156112a357600080fd5b6112ad838261232a565b6112b7838261242d565b6112c1828261255c565b808273ffffffffffffffffffffffffffffffffffffffff168473ffffffffffffffffffffffffffffffffffffffff167fddf252ad1be2c89b69c2b068fc378daa952ba7f163c4a11628f55a4df523b3ef60405160405180910390a4505050565b6008602052806000526040600020600091509050806000018054600181600116156101000203166002900480601f0160208091040260200160405190810160405280929190818152602001828054600181600116156101000203166002900480156113cd5780601f106113a2576101008083540402835291602001916113cd565b820191906000526020600020905b8154815290600101906020018083116113b057829003601f168201915b505050505090806001018054600181600116156101000203166002900480601f01602080910402602001604051908101604052809291908181526020018280546001816001161561010002031660029004801561146b5780601f106114405761010080835404028352916020019161146b565b820191906000526020600020905b81548152906001019060200180831161144e57829003601f168201915b505050505090806002018054600181600116156101000203166002900480601f0160208091040260200160405190810160405280929190818152602001828054600181600116156101000203166002900480156115095780601f106114de57610100808354040283529160200191611509565b820191906000526020600020905b8154815290600101906020018083116114ec57829003601f168201915b505050505090806003018054600181600116156101000203166002900480601f0160208091040260200160405190810160405280929190818152602001828054600181600116156101000203166002900480156115a75780601f1061157c576101008083540402835291602001916115a7565b820191906000526020600020905b81548152906001019060200180831161158a57829003601f168201915b505050505090806004018054600181600116156101000203166002900480601f0160208091040260200160405190810160405280929190818152602001828054600181600116156101000203166002900480156116455780601f1061161a57610100808354040283529160200191611645565b820191906000526020600020905b81548152906001019060200180831161162857829003601f168201915b5050505050905085565b6000806000806000806000600a6000898152602001908152602001600020541115156116be576040517f08c379a0000000000000000000000000000000000000000000000000000000008152600401808060200182810382526000815260200160200191505060405180910390fd5b600a60008881526020019081526020016000205495503073ffffffffffffffffffffffffffffffffffffffff16636352211e886040518263ffffffff167c010000000000000000000000000000000000000000000000000000000002815260040180828152602001915050602060405180830381600087803b15801561174357600080fd5b505af1158015611757573d6000803e3d6000fd5b505050506040513d602081101561176d57600080fd5b810190808051906020019092919050505094508534101515156117d3576040517f08c379a0000000000000000000000000000000000000000000000000000000008152600401808060200182810382526000815260200160200191505060405180910390fd5b6117de853389611ac4565b8473ffffffffffffffffffffffffffffffffffffffff166108fc879081150290604051600060405180830381858888f19350505050158015611824573d6000803e3d6000fd5b506000600a600089815260200190815260200160002081905550600b6000888152602001908152602001600020549350600d6000858152602001908152602001600020549250600d6000848152602001908152602001600020600090556006600081548092919060019003919050555060006006541115611948578291505b600654821015611947576007600183018154811015156118bf57fe5b90600052602060002001546007838154811015156118d957fe5b9060005260206000200181905550600b60006007848154811015156118fa57fe5b90600052602060002001548152602001908152602001600020549050600d6000828152602001908152602001600020600081548092919060019003919050555081806001019250506118a3565b5b600780548091906001900361195d9190612bfa565b50853411156119b0573373ffffffffffffffffffffffffffffffffffffffff166108fc8734039081150290604051600060405180830381858888f193505050501580156119ae573d6000803e3d6000fd5b505b50505050505050565b60006119c533846126b6565b1515611a39576040517f08c379a00000000000000000000000000000000000000000000000000000000081526004018080602001828103825260208152602001807f4f7065726174696f6e206e6f74207065726d697474656420666f72207573657281525060200191505060405180910390fd5b81600a600085815260200190815260200160002081905550600b6000848152602001908152602001600020549050600654600d6000838152602001908152602001600020819055506007839080600181540180825580915050906001820390600052602060002001600090919290919091505550600660008154809291906001019190505550505050565b611ae08383836020604051908101604052806000815250612042565b505050565b6000611aef612bca565b600060a060405190810160405280898152602001888152602001878152602001868152602001858152509150611b2686868661274b565b6040518082805190602001908083835b602083101515611b5b5780518252602082019150602081019050602083039250611b36565b6001836020036101000a038019825116818451168082178552505050505050905001915050604051809103902060019004905060001515611b9b82612aaa565b1515141515611c12576040517f08c379a00000000000000000000000000000000000000000000000000000000081526004018080602001828103825260148152602001807f5374617220616c7265616479206578697374732100000000000000000000000081525060200191505060405180910390fd5b81600860008381526020019081526020016000206000820151816000019080519060200190611c42929190612c26565b506020820151816001019080519060200190611c5f929190612c26565b506040820151816002019080519060200190611c7c929190612c26565b506060820151816003019080519060200190611c99929190612c26565b506080820151816004019080519060200190611cb6929190612c26565b50905050600554600b60008381526020019081526020016000208190555080600c600060055481526020019081526020016000208190555060016009600083815260200190815260200160002060006101000a81548160ff021916908315150217905550611d243382612ad4565b6005600081548092919060010191905055507f9be0e06ef1e0c24e5eaf2d1b28fd439456aa7f439fc7d5f8da1f2d6f64d866243382604051808373ffffffffffffffffffffffffffffffffffffffff1673ffffffffffffffffffffffffffffffffffffffff1681526020018281526020019250505060405180910390a1505095945050505050565b60606007805480602002602001604051908101604052809291908181526020018280548015611dfa57602002820191906000526020600020905b815481526020019060010190808311611de6575b5050505050905090565b6000806001600084815260200190815260200160002060009054906101000a900473ffffffffffffffffffffffffffffffffffffffff169050600073ffffffffffffffffffffffffffffffffffffffff168173ffffffffffffffffffffffffffffffffffffffff1614151515611e7957600080fd5b80915050919050565b60008073ffffffffffffffffffffffffffffffffffffffff168273ffffffffffffffffffffffffffffffffffffffff1614151515611ebf57600080fd5b600360008373ffffffffffffffffffffffffffffffffffffffff1673ffffffffffffffffffffffffffffffffffffffff168152602001908152602001600020549050919050565b3373ffffffffffffffffffffffffffffffffffffffff168273ffffffffffffffffffffffffffffffffffffffff1614151515611f4157600080fd5b80600460003373ffffffffffffffffffffffffffffffffffffffff1673ffffffffffffffffffffffffffffffffffffffff16815260200190815260200160002060008473ffffffffffffffffffffffffffffffffffffffff1673ffffffffffffffffffffffffffffffffffffffff16815260200190815260200160002060006101000a81548160ff0219169083151502179055508173ffffffffffffffffffffffffffffffffffffffff163373ffffffffffffffffffffffffffffffffffffffff167f17307eab39ab6107e8899845ad3d59bd9653f200f220920489ca2b5937696c3183604051808215151515815260200191505060405180910390a35050565b61204d848484611267565b50505050565b6000600460008473ffffffffffffffffffffffffffffffffffffffff1673ffffffffffffffffffffffffffffffffffffffff16815260200190815260200160002060008373ffffffffffffffffffffffffffffffffffffffff1673ffffffffffffffffffffffffffffffffffffffff16815260200190815260200160002060009054906101000a900460ff16905092915050565b6000806001600084815260200190815260200160002060009054906101000a900473ffffffffffffffffffffffffffffffffffffffff169050600073ffffffffffffffffffffffffffffffffffffffff168173ffffffffffffffffffffffffffffffffffffffff161415915050919050565b606080606080606060008088955087945084518651016040519080825280601f01601f1916602001820160405280156121a15781602001602082028038833980820191505090505b50935083925060009150600090505b85518110156122635785818151811015156121c757fe5b9060200101517f010000000000000000000000000000000000000000000000000000000000000090047f010000000000000000000000000000000000000000000000000000000000000002838380600101945081518110151561222657fe5b9060200101907effffffffffffffffffffffffffffffffffffffffffffffffffffffffffffff1916908160001a90535080806001019150506121b0565b600090505b845181101561231b57848181518110151561227f57fe5b9060200101517f010000000000000000000000000000000000000000000000000000000000000090047f01000000000000000000000000000000000000000000000000000000000000000283838060010194508151811015156122de57fe5b9060200101907effffffffffffffffffffffffffffffffffffffffffffffffffffffffffffff1916908160001a9053508080600101915050612268565b82965050505050505092915050565b8173ffffffffffffffffffffffffffffffffffffffff1661234a82611e04565b73ffffffffffffffffffffffffffffffffffffffff1614151561236c57600080fd5b600073ffffffffffffffffffffffffffffffffffffffff166002600083815260200190815260200160002060009054906101000a900473ffffffffffffffffffffffffffffffffffffffff1673ffffffffffffffffffffffffffffffffffffffff161415156124295760006002600083815260200190815260200160002060006101000a81548173ffffffffffffffffffffffffffffffffffffffff021916908373ffffffffffffffffffffffffffffffffffffffff1602179055505b5050565b8173ffffffffffffffffffffffffffffffffffffffff1661244d82611e04565b73ffffffffffffffffffffffffffffffffffffffff1614151561246f57600080fd5b6124c26001600360008573ffffffffffffffffffffffffffffffffffffffff1673ffffffffffffffffffffffffffffffffffffffff16815260200190815260200160002054612ae290919063ffffffff16565b600360008473ffffffffffffffffffffffffffffffffffffffff1673ffffffffffffffffffffffffffffffffffffffff1681526020019081526020016000208190555060006001600083815260200190815260200160002060006101000a81548173ffffffffffffffffffffffffffffffffffffffff021916908373ffffffffffffffffffffffffffffffffffffffff1602179055505050565b600073ffffffffffffffffffffffffffffffffffffffff166001600083815260200190815260200160002060009054906101000a900473ffffffffffffffffffffffffffffffffffffffff1673ffffffffffffffffffffffffffffffffffffffff161415156125ca57600080fd5b816001600083815260200190815260200160002060006101000a81548173ffffffffffffffffffffffffffffffffffffffff021916908373ffffffffffffffffffffffffffffffffffffffff16021790555061266f6001600360008573ffffffffffffffffffffffffffffffffffffffff1673ffffffffffffffffffffffffffffffffffffffff16815260200190815260200160002054612b0390919063ffffffff16565b600360008473ffffffffffffffffffffffffffffffffffffffff1673ffffffffffffffffffffffffffffffffffffffff168152602001908152602001600020819055505050565b6000806126c283611e04565b90508073ffffffffffffffffffffffffffffffffffffffff168473ffffffffffffffffffffffffffffffffffffffff16148061273157508373ffffffffffffffffffffffffffffffffffffffff1661271984610c8f565b73ffffffffffffffffffffffffffffffffffffffff16145b8061274257506127418185612053565b5b91505092915050565b6060806060806060806000808a965089955088945060028551875189510101016040519080825280601f01601f19166020018201604052801561279d5781602001602082028038833980820191505090505b50935083925060009150600090505b865181101561285f5786818151811015156127c357fe5b9060200101517f010000000000000000000000000000000000000000000000000000000000000090047f010000000000000000000000000000000000000000000000000000000000000002838380600101945081518110151561282257fe5b9060200101907effffffffffffffffffffffffffffffffffffffffffffffffffffffffffffff1916908160001a90535080806001019150506127ac565b7f5f00000000000000000000000000000000000000000000000000000000000000838380600101945081518110151561289457fe5b9060200101907effffffffffffffffffffffffffffffffffffffffffffffffffffffffffffff1916908160001a905350600090505b855181101561297c5785818151811015156128e057fe5b9060200101517f010000000000000000000000000000000000000000000000000000000000000090047f010000000000000000000000000000000000000000000000000000000000000002838380600101945081518110151561293f57fe5b9060200101907effffffffffffffffffffffffffffffffffffffffffffffffffffffffffffff1916908160001a90535080806001019150506128c9565b7f5f0000000000000000000000000000000000000000000000000000000000000083838060010194508151811015156129b157fe5b9060200101907effffffffffffffffffffffffffffffffffffffffffffffffffffffffffffff1916908160001a905350600090505b8451811015612a995784818151811015156129fd57fe5b9060200101517f010000000000000000000000000000000000000000000000000000000000000090047f0100000000000000000000000000000000000000000000000000000000000000028383806001019450815181101515612a5c57fe5b9060200101907effffffffffffffffffffffffffffffffffffffffffffffffffffffffffffff1916908160001a90535080806001019150506129e6565b829750505050505050509392505050565b60006009600083815260200190815260200160002060009054906101000a900460ff169050919050565b612ade8282612b24565b5050565b600080838311151515612af457600080fd5b82840390508091505092915050565b6000808284019050838110151515612b1a57600080fd5b8091505092915050565b600073ffffffffffffffffffffffffffffffffffffffff168273ffffffffffffffffffffffffffffffffffffffff1614151515612b6057600080fd5b612b6a828261255c565b808273ffffffffffffffffffffffffffffffffffffffff16600073ffffffffffffffffffffffffffffffffffffffff167fddf252ad1be2c89b69c2b068fc378daa952ba7f163c4a11628f55a4df523b3ef60405160405180910390a45050565b60a06040519081016040528060608152602001606081526020016060815260200160608152602001606081525090565b815481835581811115612c2157818360005260206000209182019101612c209190612ca6565b5b505050565b828054600181600116156101000203166002900490600052602060002090601f016020900481019282601f10612c6757805160ff1916838001178555612c95565b82800160010185558215612c95579182015b82811115612c94578251825591602001919060010190612c79565b5b509050612ca29190612ca6565b5090565b612cc891905b80821115612cc4576000816000905550600101612cac565b5090565b905600a165627a7a72305820f290a832fd16383bb7532f7a1286127c11c39474b13fd65dfccb0d025cdab1610029",
  "source": "pragma solidity ^0.4.24;\n\nimport 'openzeppelin-solidity/contracts/token/ERC721/ERC721.sol';\n\n// import string manipulation\n\ncontract StarNotary is ERC721 { \n\n    struct Star { \n        string name;\n        string story;\n        string dec;\n        string mag;\n        string cent;\n    }\n\n    uint256 internal starCount = 0; \n    uint256 internal sellingCount = 0;\n    uint256[] internal tokenIdsForSale; \n    mapping(uint256 => Star) public tokenIdToStar;\n    mapping(uint256 => bool) internal allTokens;\n    mapping(uint256 => uint256) internal _starsForSale;\n    mapping (uint256 => uint256) internal _tokenIdToSerial;\n    mapping (uint256 => uint256) internal _serialToTokenId;   \n    mapping (uint256 => uint256) internal _serialToSellingIndex;\n \n    event starCreated(address owner, uint256 tokenId);\n\n    function createStar(\n        string _name, \n        string _story,  \n        string _dec, \n        string _mag,\n        string _cent\n        ) public returns (uint256){    \n\n        Star memory newStar = Star({\n            name: _name,\n            story: _story,\n            dec: _dec,\n            mag: _mag,\n            cent: _cent});\n\n\n        uint256  _tokenId = uint256(keccak256(_strConcat(_dec, _mag, _cent)));\n        require(checkIfStarExist(_tokenId) == false, \"Star already exists!\");\n        tokenIdToStar[_tokenId] = newStar;\n        _tokenIdToSerial[_tokenId] = starCount;\n        _serialToTokenId[starCount] = _tokenId;\n        allTokens[_tokenId] = true;\n        mint(msg.sender, _tokenId);\n        starCount++;\n\n        emit starCreated(msg.sender, _tokenId);\n\n    }\n\n    function mint(address _to, uint256 _tokenId) internal{\n        _mint(_to, _tokenId);\n    }\n\n\n    function checkIfStarExist (uint256 _tokenId) internal view returns (bool)  {\n        return allTokens[_tokenId];\n    }\n\n    function putStarUpForSale(uint256 _tokenId, uint256 _price) public { \n        require(_isApprovedOrOwner(msg.sender,_tokenId), \"Operation not permitted for user\");\n        _starsForSale[_tokenId] = _price;\n        uint256 _serial = _tokenIdToSerial[_tokenId];\n        _serialToSellingIndex[_serial] = sellingCount;\n        tokenIdsForSale.push(_tokenId);\n        sellingCount++;\n    }\n\n\n    function buyStar(uint256 _tokenId) public payable { \n        require(_starsForSale[_tokenId] > 0,\"\");\n        \n        uint256 starCost = _starsForSale[_tokenId];\n        address starOwner = this.ownerOf(_tokenId);\n        require(msg.value >= starCost, \"\");\n\n        safeTransferFrom(starOwner, msg.sender, _tokenId);\n        starOwner.transfer(starCost);\n\n        // set price to 0 so star cannot be purchased unless the new owner desires so\n        _starsForSale[_tokenId] = 0;\n\n        // delete the entry from the selling array\n        uint256 _serial = _tokenIdToSerial[_tokenId];\n        uint256 _indexToDelete = _serialToSellingIndex[_serial];\n        delete _serialToSellingIndex[_indexToDelete];\n        sellingCount--;\n        \n        // shift the elements of the selling array\n        if (sellingCount > 0){\n            for (uint i = _indexToDelete; i<sellingCount; i++){\n                tokenIdsForSale[i] = tokenIdsForSale[i+1];\n                uint256 _serialSelling = _tokenIdToSerial[tokenIdsForSale[i]];\n                _serialToSellingIndex[_serialSelling]--;\n            }\n        }\n        tokenIdsForSale.length--;\n\n        if(msg.value > starCost) { \n            msg.sender.transfer(msg.value - starCost);\n        }\n    }\n\n    function starsForSale() public view returns (uint256[]){\n        return tokenIdsForSale;\n\n    }\n    \n    function tokenIdToStarInfo(uint256 _tokenId) external view returns (\n        string _name, \n        string _story, \n        string _dec, \n        string _mag,\n        string _cent){\n        Star memory _star = tokenIdToStar[_tokenId];\n        _name = _star.name;\n        _story = _star.story;\n        _dec = _strConcat(\"dec_\", _star.dec);\n        _mag = _strConcat(\"mag_\", _star.mag);\n        _cent = _strConcat(\"cent_\", _star.cent);\n    } \n\n    function _strConcat(string _a, string _b) internal pure returns (string){ \n        bytes memory _ba = bytes(_a); \n        bytes memory _bb = bytes(_b); \n        string memory s = new string(_ba.length + _bb.length);\n        bytes memory bytes_s = bytes(s); \n        uint k = 0; \n        for (uint i = 0; i < _ba.length; i++) bytes_s[k++] = _ba[i]; \n        for (i = 0; i < _bb.length; i++) bytes_s[k++] = _bb[i]; \n        return string(bytes_s); \n    }\n\n    function _strConcat(string _a, string _b, string _c) internal pure returns (string){ \n        //Returns the concenated coord in the format dec_rad_cent \n\n        bytes memory _ba = bytes(_a); \n        bytes memory _bb = bytes(_b); \n        bytes memory _bc = bytes(_c); \n        string memory s = new string(_ba.length + _bb.length + _bc.length + 2);\n        bytes memory bytes_s = bytes(s); \n        uint k = 0; \n        for (uint i = 0; i < _ba.length; i++) bytes_s[k++] = _ba[i];\n        bytes_s[k++] = \"_\";\n        for (i = 0; i < _bb.length; i++) bytes_s[k++] = _bb[i]; \n        bytes_s[k++] = \"_\";\n        for (i = 0; i < _bc.length; i++) bytes_s[k++] = _bc[i]; \n        return string(bytes_s); \n    }\n}",
  "sourcePath": "/home/dimitrios/Documents/blockchain/Project 5/smart_contracts/contracts/StarNotary.sol",
  "compiler": {
    "name": "solc",
    "version": "0.4.24+commit.e67f0147.Emscripten.clang"
  },
  "schemaVersion": "2.0.1",
  "updatedAt": "2018-10-29T22:18:46.796Z"
}